{
  "_format": "hh-sol-artifact-1",
  "contractName": "JING",
  "sourceName": "contracts/JING.sol",
  "abi": [
    {
      "inputs": [],
      "stateMutability": "nonpayable",
      "type": "constructor"
    },
    {
      "inputs": [
        {
          "internalType": "address",
          "name": "spender",
          "type": "address"
        },
        {
          "internalType": "uint256",
          "name": "allowance",
          "type": "uint256"
        },
        {
          "internalType": "uint256",
          "name": "needed",
          "type": "uint256"
        }
      ],
      "name": "ERC20InsufficientAllowance",
      "type": "error"
    },
    {
      "inputs": [
        {
          "internalType": "address",
          "name": "sender",
          "type": "address"
        },
        {
          "internalType": "uint256",
          "name": "balance",
          "type": "uint256"
        },
        {
          "internalType": "uint256",
          "name": "needed",
          "type": "uint256"
        }
      ],
      "name": "ERC20InsufficientBalance",
      "type": "error"
    },
    {
      "inputs": [
        {
          "internalType": "address",
          "name": "approver",
          "type": "address"
        }
      ],
      "name": "ERC20InvalidApprover",
      "type": "error"
    },
    {
      "inputs": [
        {
          "internalType": "address",
          "name": "receiver",
          "type": "address"
        }
      ],
      "name": "ERC20InvalidReceiver",
      "type": "error"
    },
    {
      "inputs": [
        {
          "internalType": "address",
          "name": "sender",
          "type": "address"
        }
      ],
      "name": "ERC20InvalidSender",
      "type": "error"
    },
    {
      "inputs": [
        {
          "internalType": "address",
          "name": "spender",
          "type": "address"
        }
      ],
      "name": "ERC20InvalidSpender",
      "type": "error"
    },
    {
      "inputs": [
        {
          "internalType": "address",
          "name": "owner",
          "type": "address"
        }
      ],
      "name": "OwnableInvalidOwner",
      "type": "error"
    },
    {
      "inputs": [
        {
          "internalType": "address",
          "name": "account",
          "type": "address"
        }
      ],
      "name": "OwnableUnauthorizedAccount",
      "type": "error"
    },
    {
      "anonymous": false,
      "inputs": [
        {
          "indexed": true,
          "internalType": "address",
          "name": "owner",
          "type": "address"
        },
        {
          "indexed": true,
          "internalType": "address",
          "name": "spender",
          "type": "address"
        },
        {
          "indexed": false,
          "internalType": "uint256",
          "name": "value",
          "type": "uint256"
        }
      ],
      "name": "Approval",
      "type": "event"
    },
    {
      "anonymous": false,
      "inputs": [
        {
          "indexed": true,
          "internalType": "address",
          "name": "previousOwner",
          "type": "address"
        },
        {
          "indexed": true,
          "internalType": "address",
          "name": "newOwner",
          "type": "address"
        }
      ],
      "name": "OwnershipTransferred",
      "type": "event"
    },
    {
      "anonymous": false,
      "inputs": [
        {
          "indexed": true,
          "internalType": "address",
          "name": "from",
          "type": "address"
        },
        {
          "indexed": true,
          "internalType": "address",
          "name": "to",
          "type": "address"
        },
        {
          "indexed": false,
          "internalType": "uint256",
          "name": "value",
          "type": "uint256"
        }
      ],
      "name": "Transfer",
      "type": "event"
    },
    {
      "inputs": [],
      "name": "MAX_SALE_TOKENS",
      "outputs": [
        {
          "internalType": "uint256",
          "name": "",
          "type": "uint256"
        }
      ],
      "stateMutability": "view",
      "type": "function"
    },
    {
      "inputs": [
        {
          "internalType": "address",
          "name": "owner",
          "type": "address"
        },
        {
          "internalType": "address",
          "name": "spender",
          "type": "address"
        }
      ],
      "name": "allowance",
      "outputs": [
        {
          "internalType": "uint256",
          "name": "",
          "type": "uint256"
        }
      ],
      "stateMutability": "view",
      "type": "function"
    },
    {
      "inputs": [
        {
          "internalType": "address",
          "name": "spender",
          "type": "address"
        },
        {
          "internalType": "uint256",
          "name": "value",
          "type": "uint256"
        }
      ],
      "name": "approve",
      "outputs": [
        {
          "internalType": "bool",
          "name": "",
          "type": "bool"
        }
      ],
      "stateMutability": "nonpayable",
      "type": "function"
    },
    {
      "inputs": [
        {
          "internalType": "address",
          "name": "account",
          "type": "address"
        }
      ],
      "name": "balanceOf",
      "outputs": [
        {
          "internalType": "uint256",
          "name": "",
          "type": "uint256"
        }
      ],
      "stateMutability": "view",
      "type": "function"
    },
    {
      "inputs": [
        {
          "internalType": "uint256",
          "name": "amount",
          "type": "uint256"
        }
      ],
      "name": "buyTokens",
      "outputs": [],
      "stateMutability": "payable",
      "type": "function"
    },
    {
      "inputs": [],
      "name": "decimals",
      "outputs": [
        {
          "internalType": "uint8",
          "name": "",
          "type": "uint8"
        }
      ],
      "stateMutability": "view",
      "type": "function"
    },
    {
      "inputs": [
        {
          "internalType": "address",
          "name": "to",
          "type": "address"
        },
        {
          "internalType": "uint256",
          "name": "amount",
          "type": "uint256"
        }
      ],
      "name": "mint",
      "outputs": [],
      "stateMutability": "nonpayable",
      "type": "function"
    },
    {
      "inputs": [],
      "name": "name",
      "outputs": [
        {
          "internalType": "string",
          "name": "",
          "type": "string"
        }
      ],
      "stateMutability": "view",
      "type": "function"
    },
    {
      "inputs": [],
      "name": "owner",
      "outputs": [
        {
          "internalType": "address",
          "name": "",
          "type": "address"
        }
      ],
      "stateMutability": "view",
      "type": "function"
    },
    {
      "inputs": [],
      "name": "renounceOwnership",
      "outputs": [],
      "stateMutability": "nonpayable",
      "type": "function"
    },
    {
      "inputs": [
        {
          "internalType": "uint256",
          "name": "newPrice",
          "type": "uint256"
        }
      ],
      "name": "setTokenPrice",
      "outputs": [],
      "stateMutability": "nonpayable",
      "type": "function"
    },
    {
      "inputs": [],
      "name": "symbol",
      "outputs": [
        {
          "internalType": "string",
          "name": "",
          "type": "string"
        }
      ],
      "stateMutability": "view",
      "type": "function"
    },
    {
      "inputs": [],
      "name": "tokenPrice",
      "outputs": [
        {
          "internalType": "uint256",
          "name": "",
          "type": "uint256"
        }
      ],
      "stateMutability": "view",
      "type": "function"
    },
    {
      "inputs": [],
      "name": "totalSold",
      "outputs": [
        {
          "internalType": "uint256",
          "name": "",
          "type": "uint256"
        }
      ],
      "stateMutability": "view",
      "type": "function"
    },
    {
      "inputs": [],
      "name": "totalSupply",
      "outputs": [
        {
          "internalType": "uint256",
          "name": "",
          "type": "uint256"
        }
      ],
      "stateMutability": "view",
      "type": "function"
    },
    {
      "inputs": [
        {
          "internalType": "address",
          "name": "to",
          "type": "address"
        },
        {
          "internalType": "uint256",
          "name": "value",
          "type": "uint256"
        }
      ],
      "name": "transfer",
      "outputs": [
        {
          "internalType": "bool",
          "name": "",
          "type": "bool"
        }
      ],
      "stateMutability": "nonpayable",
      "type": "function"
    },
    {
      "inputs": [
        {
          "internalType": "address",
          "name": "from",
          "type": "address"
        },
        {
          "internalType": "address",
          "name": "to",
          "type": "address"
        },
        {
          "internalType": "uint256",
          "name": "value",
          "type": "uint256"
        }
      ],
      "name": "transferFrom",
      "outputs": [
        {
          "internalType": "bool",
          "name": "",
          "type": "bool"
        }
      ],
      "stateMutability": "nonpayable",
      "type": "function"
    },
    {
      "inputs": [
        {
          "internalType": "address",
          "name": "newOwner",
          "type": "address"
        }
      ],
      "name": "transferOwnership",
      "outputs": [],
      "stateMutability": "nonpayable",
      "type": "function"
    },
    {
      "inputs": [],
      "name": "withdrawFunds",
      "outputs": [],
      "stateMutability": "nonpayable",
      "type": "function"
    }
  ],
  "bytecode": "0x608060405266038d7ea4c680006006553480156200001c57600080fd5b50336040518060400160405280600a8152602001692524a723902a37b5b2b760b11b815250604051806040016040528060068152602001654a494e47524d60d01b815250816003908162000071919062000343565b50600462000080828262000343565b5050506001600160a01b038116620000b357604051631e4fbdf760e01b8152600060048201526024015b60405180910390fd5b620000be81620000db565b50620000d53369d3c21bcecceda10000006200012d565b62000437565b600580546001600160a01b038381166001600160a01b0319831681179093556040519116919082907f8be0079c531659141344cd1fd0a4f28419497f9722a3daafe3b4186f6b6457e090600090a35050565b6001600160a01b038216620001595760405163ec442f0560e01b815260006004820152602401620000aa565b62000167600083836200016b565b5050565b6001600160a01b0383166200019a5780600260008282546200018e91906200040f565b909155506200020e9050565b6001600160a01b03831660009081526020819052604090205481811015620001ef5760405163391434e360e21b81526001600160a01b03851660048201526024810182905260448101839052606401620000aa565b6001600160a01b03841660009081526020819052604090209082900390555b6001600160a01b0382166200022c576002805482900390556200024b565b6001600160a01b03821660009081526020819052604090208054820190555b816001600160a01b0316836001600160a01b03167fddf252ad1be2c89b69c2b068fc378daa952ba7f163c4a11628f55a4df523b3ef836040516200029191815260200190565b60405180910390a3505050565b634e487b7160e01b600052604160045260246000fd5b600181811c90821680620002c957607f821691505b602082108103620002ea57634e487b7160e01b600052602260045260246000fd5b50919050565b601f8211156200033e57600081815260208120601f850160051c81016020861015620003195750805b601f850160051c820191505b818110156200033a5782815560010162000325565b5050505b505050565b81516001600160401b038111156200035f576200035f6200029e565b6200037781620003708454620002b4565b84620002f0565b602080601f831160018114620003af5760008415620003965750858301515b600019600386901b1c1916600185901b1785556200033a565b600085815260208120601f198616915b82811015620003e057888601518255948401946001909101908401620003bf565b5085821015620003ff5787850151600019600388901b60f8161c191681555b5050505050600190811b01905550565b808201808211156200043157634e487b7160e01b600052601160045260246000fd5b92915050565b610c1e80620004476000396000f3fe6080604052600436106101145760003560e01c80636a61e5fc116100a05780639106d7ba116100645780639106d7ba146102e057806395d89b41146102f6578063a9059cbb1461030b578063dd62ed3e1461032b578063f2fde38b1461037157600080fd5b80636a61e5fc1461023757806370a0823114610257578063715018a61461028d5780637ff9b596146102a25780638da5cb5b146102b857600080fd5b806324600fc3116100e757806324600fc3146101b3578063313ce567146101ca5780633610724e146101e657806340c10f19146101f957806354a33d921461021957600080fd5b806306fdde0314610119578063095ea7b31461014457806318160ddd1461017457806323b872dd14610193575b600080fd5b34801561012557600080fd5b5061012e610391565b60405161013b9190610a30565b60405180910390f35b34801561015057600080fd5b5061016461015f366004610a9a565b610423565b604051901515815260200161013b565b34801561018057600080fd5b506002545b60405190815260200161013b565b34801561019f57600080fd5b506101646101ae366004610ac4565b61043d565b3480156101bf57600080fd5b506101c8610461565b005b3480156101d657600080fd5b506040516012815260200161013b565b6101c86101f4366004610b00565b6104a5565b34801561020557600080fd5b506101c8610214366004610a9a565b6105fd565b34801561022557600080fd5b5061018569021e19e0c9bab240000081565b34801561024357600080fd5b506101c8610252366004610b00565b610613565b34801561026357600080fd5b50610185610272366004610b19565b6001600160a01b031660009081526020819052604090205490565b34801561029957600080fd5b506101c8610620565b3480156102ae57600080fd5b5061018560065481565b3480156102c457600080fd5b506005546040516001600160a01b03909116815260200161013b565b3480156102ec57600080fd5b5061018560075481565b34801561030257600080fd5b5061012e610634565b34801561031757600080fd5b50610164610326366004610a9a565b610643565b34801561033757600080fd5b50610185610346366004610b3b565b6001600160a01b03918216600090815260016020908152604080832093909416825291909152205490565b34801561037d57600080fd5b506101c861038c366004610b19565b610651565b6060600380546103a090610b6e565b80601f01602080910402602001604051908101604052809291908181526020018280546103cc90610b6e565b80156104195780601f106103ee57610100808354040283529160200191610419565b820191906000526020600020905b8154815290600101906020018083116103fc57829003601f168201915b5050505050905090565b60003361043181858561068c565b60019150505b92915050565b60003361044b85828561069e565b61045685858561071d565b506001949350505050565b61046961077c565b6005546040516001600160a01b03909116904780156108fc02916000818181858888f193505050501580156104a2573d6000803e3d6000fd5b50565b600081116104fa5760405162461bcd60e51b815260206004820152601760248201527f416d6f756e74206d75737420626520706f73697469766500000000000000000060448201526064015b60405180910390fd5b6006546105079082610bbe565b341461054c5760405162461bcd60e51b8152602060048201526014602482015273125b98dbdc9c9958dd0811551208185b5bdd5b9d60621b60448201526064016104f1565b69021e19e0c9bab240000061056982670de0b6b3a7640000610bbe565b6007546105769190610bd5565b11156105b95760405162461bcd60e51b8152602060048201526012602482015271115e18d959591cc81cd85b19481b1a5b5a5d60721b60448201526064016104f1565b6105cb81670de0b6b3a7640000610bbe565b600760008282546105dc9190610bd5565b909155506104a29050336105f883670de0b6b3a7640000610bbe565b6107a9565b61060561077c565b61060f82826107a9565b5050565b61061b61077c565b600655565b61062861077c565b61063260006107df565b565b6060600480546103a090610b6e565b60003361043181858561071d565b61065961077c565b6001600160a01b03811661068357604051631e4fbdf760e01b8152600060048201526024016104f1565b6104a2816107df565b6106998383836001610831565b505050565b6001600160a01b03838116600090815260016020908152604080832093861683529290522054600019811015610717578181101561070857604051637dc7a0d960e11b81526001600160a01b038416600482015260248101829052604481018390526064016104f1565b61071784848484036000610831565b50505050565b6001600160a01b03831661074757604051634b637e8f60e11b8152600060048201526024016104f1565b6001600160a01b0382166107715760405163ec442f0560e01b8152600060048201526024016104f1565b610699838383610906565b6005546001600160a01b031633146106325760405163118cdaa760e01b81523360048201526024016104f1565b6001600160a01b0382166107d35760405163ec442f0560e01b8152600060048201526024016104f1565b61060f60008383610906565b600580546001600160a01b038381166001600160a01b0319831681179093556040519116919082907f8be0079c531659141344cd1fd0a4f28419497f9722a3daafe3b4186f6b6457e090600090a35050565b6001600160a01b03841661085b5760405163e602df0560e01b8152600060048201526024016104f1565b6001600160a01b03831661088557604051634a1406b160e11b8152600060048201526024016104f1565b6001600160a01b038085166000908152600160209081526040808320938716835292905220829055801561071757826001600160a01b0316846001600160a01b03167f8c5be1e5ebec7d5bd14f71427d1e84f3dd0314c0f7b2291e5b200ac8c7c3b925846040516108f891815260200190565b60405180910390a350505050565b6001600160a01b0383166109315780600260008282546109269190610bd5565b909155506109a39050565b6001600160a01b038316600090815260208190526040902054818110156109845760405163391434e360e21b81526001600160a01b038516600482015260248101829052604481018390526064016104f1565b6001600160a01b03841660009081526020819052604090209082900390555b6001600160a01b0382166109bf576002805482900390556109de565b6001600160a01b03821660009081526020819052604090208054820190555b816001600160a01b0316836001600160a01b03167fddf252ad1be2c89b69c2b068fc378daa952ba7f163c4a11628f55a4df523b3ef83604051610a2391815260200190565b60405180910390a3505050565b600060208083528351808285015260005b81811015610a5d57858101830151858201604001528201610a41565b506000604082860101526040601f19601f8301168501019250505092915050565b80356001600160a01b0381168114610a9557600080fd5b919050565b60008060408385031215610aad57600080fd5b610ab683610a7e565b946020939093013593505050565b600080600060608486031215610ad957600080fd5b610ae284610a7e565b9250610af060208501610a7e565b9150604084013590509250925092565b600060208284031215610b1257600080fd5b5035919050565b600060208284031215610b2b57600080fd5b610b3482610a7e565b9392505050565b60008060408385031215610b4e57600080fd5b610b5783610a7e565b9150610b6560208401610a7e565b90509250929050565b600181811c90821680610b8257607f821691505b602082108103610ba257634e487b7160e01b600052602260045260246000fd5b50919050565b634e487b7160e01b600052601160045260246000fd5b808202811582820484141761043757610437610ba8565b8082018082111561043757610437610ba856fea2646970667358221220272b4d96dda7910e220134e3cb4d59c69819dc2213a1519e12f962cfa172c13e64736f6c63430008140033",
  "linkReferences": {},
  "deployedLinkReferences": {}
}